:020000040800F2
:1000000000400020051900089D030008A90300080E
:10001000B1030008B9030008C10300080000000094
:10002000000000000000000000000000C9030008FC
:10003000D503000800000000E1030008ED030008FC
:100040004D1900084D1900084D1900084D190008F8
:100050004D1900084D1900084D1900084D190008E8
:100060004D1900084D1900084D1900084D190008D8
:100070004D1900084D1900084D1900084D190008C8
:100080004D1900084D1900084D1900084D190008B8
:100090004D1900084D1900084D1900084D190008A8
:1000A0004D1900084D1900084D1900084D19000898
:1000B0004D1900084D1900084D1900084D19000888
:1000C0004D1900084D1900084D1900084D19000878
:1000D0004D1900084D1900084D1900084D19000868
:1000E0004D1900084D1900084D1900084D19000858
:1000F0004D19000800000000000000000000000092
:0C01000000000000000000005FF808F1A3
:10010C0040F23C03C2F200031A780AB901201870BD
:10011C00704700BF40F23C00C2F2000008B5036813
:10012C002BB140F20003C0F2000303B1984708BDA5
:10013C0080B483B000AF03463960FB7197F9073088
:10014C00002B0DDA0E49FB7903F00F03A3F1040326
:10015C003A68D2B24FEA0212D2B2CB181A760AE03F
:10016C00084997F907303A68D2B24FEA0212D2B274
:10017C00CB1883F8002307F10C07BD4680BC7047F1
:10018C0000ED00E000E100E080B582B000AF7860E7
:10019C007A686FF07F439A4202D94FF0010316E060
:1001AC000D4B7A6822F07F4202F1FF325A604FF019
:1001BC00FF304FF00F01FFF7BBFF074B4FF0000272
:1001CC009A60054B4FF007021A604FF00003184677
:1001DC0007F10807BD4680BD10E000E080B500AF18
:1001EC00064801F04FF8054B5A68054BA3FB021368
:1001FC004FEA93131846FFF7C7FF80BD5800002045
:10020C00D34D621080B582B000AF4FF000037B601D
:10021C0000F02EF800F05EF8FFF7E0FF064B4FF011
:10022C0080021A83044B4FF040025A837B6803F11F
:10023C0001037B60FAE700BF0004024080B485B084
:10024C0000AFF860B9607A603B60FEE780B584B0BF
:10025C0000AFF860B9607A60F868B9684FF00002D6
:10026C007B68FFF7EBFF07F11007BD4680BD00BFB1
:10027C0080B500AF4FF03F004FF0010101F042F9A3
:10028C0013484FF0010101F081F94FF001004FF0DC
:10029C00010101F059F94FF0010000F0A3FC4FF0FF
:1002AC00010001F01FF94FF0000001F01BF94FF0B5
:1002BC00010000F0E9FE00BF4FF0490001F07CFAAC
:1002CC000346002BF8D04FF4803001F0C7F880BD06
:1002DC000002009080B582B000AF4FF001033B608C
:1002EC004FF000033B714FF00003FB714FF0010323
:1002FC007B713B461148194600F078FA4FF0C00369
:10030C003B604FF001033B714FF00003BB714FF0AA
:10031C000003FB714FF001037B713B460848194603
:10032C0000F064FA064B4FF080025A83044B4FF0F6
:10033C0040025A8307F10807BD4680BD0000024009
:10034C000004024080B483B000AF7860064B7A683A
:10035C001A6000BF044B1B68002BFBD107F10C0784
:10036C00BD4680BC704700BF4000002080B400AF89
:10037C00064B1B68002B05D0044B1B6803F1FF32A6
:10038C00024B1A60BD4680BC704700BF4000002085
:10039C0080B400AFBD4680BC704700BF80B400AFD6
:1003AC00FEE700BF80B400AFFEE700BF80B400AF33
:1003BC00FEE700BF80B400AFFEE700BF80B400AF23
:1003CC00BD4680BC704700BF80B400AFBD4680BC4A
:1003DC00704700BF80B400AFBD4680BC704700BF03
:1003EC0080B500AFFFF7C2FF80BD00BF80B500AF86
:1003FC00154B154A126842F480721A60124A124B5D
:10040C009968124B01EA030393600F4A0E4B19686B
:10041C000F4B01EA030313600B4B0B4A126822F4D7
:10042C0080221A60084B084A926822F47D029A6076
:10043C00054B4FF00002DA6000F0C8F8054B4FF0A6
:10044C0000629A6080BD00BF003802400CC0FF887B
:10045C00FEFFFEEE00ED00E080B487B000AF4FF081
:10046C0000037B614FF000033B614FF00003FB6026
:10047C004FF00003BB604FF000037B604D4B9B685B
:10048C0003F00C037B617B690C2B6AD801A252F838
:10049C0023F000BFD50400086F0500086F050008A5
:1004AC006F050008F90400086F0500086F050008C7
:1004BC006F050008010500086F0500086F050008AE
:1004CC006F050008090500083A4B5B6803F46043AC
:1004DC004FEA53337B607B6803F101034FF4004216
:1004EC0002FA03F31A46344B1A604CE0324B334A8F
:1004FC001A6048E0304B324A1A6044E02D4B9B683E
:10050C0003F470133B612B4B9B6803F44003FB60BB
:10051C003B694FEA93432B4AD35CDBB23B61FB68EC
:10052C004FEA935303F10103FB60224B9B6803F4E6
:10053C008033BB60BB68002B09D13B691F4A02FBAF
:10054C0003F2FB68B2FBF3F21B4B1A601BE03B6936
:10055C001B4A02FB03F2FB68B2FBF3F2164B1A6068
:10056C0011E0144B5B6803F460434FEA53337B6038
:10057C007B6803F101034FF4004202FA03F31A46BD
:10058C000D4B1A6000BF0B4B9B6803F0F0034FEA56
:10059C0013130D4AD35CDBB27B61074B1A687B6982
:1005AC0022FA03F2044B1A6007F11C07BD4680BC0B
:1005BC00704700BF00380240000000200024F40007
:1005CC0000127A00040000201000002080B483B0D8
:1005DC0000AF4FF000037B604FF000033B60434BD8
:1005EC00424A126842F480321A60404B1B6803F492
:1005FC0000333B607B6803F101037B603B68002B9D
:10060C0003D17B68B3F5A06FEFD1384B1B6803F4B3
:10061C000033002B03D04FF001033B6002E04FF09E
:10062C0000033B603B68012B5AD1314B304A1268B6
:10063C0042F004021A602E4B2D4A126842F002025C
:10064C001A602B4B2A4A126842F001021A60274B9F
:10065C00264A526A42F080525A62264B4FF400628C
:10066C001A6000BF234B5B6803F01003002BF9D119
:10067C001E4B1E4A92689A601C4B1C4A92689A60E8
:10068C001A4B1A4A92689A60184B184A926822F4CC
:10069C007D029A60154B154A926842F49A029A6050
:1006AC00124B124A126842F080721A6000BF0F4B54
:1006BC001B6803F00073002BF9D00C4B0B4A9268AB
:1006CC0022F003029A60094B084A926842F0030236
:1006DC009A6000BF054B9B6803F00C030C2BF9D1FF
:1006EC0007F10C07BD4680BC704700BF00380240C4
:1006FC00003C02400070004080B582B000AF7860D2
:10070C007A68344B9A420CD14FF001004FF0010142
:10071C0000F05EFF4FF001004FF0000100F058FFB9
:10072C0053E07A682C4B9A420CD14FF002004FF0F8
:10073C00010100F04DFF4FF002004FF0000100F0FE
:10074C0047FF42E07A68254B9A420CD14FF00400E7
:10075C004FF0010100F03CFF4FF004004FF000019E
:10076C0000F036FF31E07A681D4B9A420CD14FF005
:10077C0008004FF0010100F02BFF4FF008004FF084
:10078C00000100F025FF20E07A68164B9A420CD14C
:10079C004FF010004FF0010100F01AFF4FF0100065
:1007AC004FF0000100F014FF0FE07A680E4B9A42F4
:1007BC000BD14FF020004FF0010100F009FF4FF07A
:1007CC0020004FF0000100F003FF07F10807BD46C1
:1007DC0080BD00BF0000024000040240000802403F
:1007EC00000C0240001002400014024080B487B09C
:1007FC0000AF786039604FF000037B614FF000036D
:10080C003B614FF00003FB604FF000037B618FE016
:10081C007B694FF0010202FA03F33B613B681A68F3
:10082C003B6902EA0303FB60FA683B699A427BD19D
:10083C007B681A687B694FEA43034FF0030101FAA6
:10084C0003F36FEA03031A407B681A607B681A682B
:10085C003B681B7919467B694FEA430301FA03F3A2
:10086C001A437B681A603B681B79012B03D03B68E9
:10087C001B79022B3CD17B689A687B694FEA430356
:10088C004FF0030101FA03F36FEA03031A407B688C
:10089C009A607B689A683B685B7919467B694FEA7A
:1008AC00430301FA03F31A437B689A607B689B88C5
:1008BC009AB27B699BB24FF0010101FA03F39BB230
:1008CC006FEA03039BB202EA03039AB27B689A8035
:1008DC007B689B889AB23B689B7919467B699BB273
:1008EC0001FA03F39BB242EA03039AB27B689A8043
:1008FC007B68DA687B699BB24FEA43034FF00301D4
:10090C0001FA03F36FEA03031A407B68DA607B6831
:10091C00DA683B68DB7919467B694FEA430301FAD5
:10092C0003F31A437B68DA607B6903F101037B6193
:10093C007B690F2B7FF66CAF07F11C07BD4680BCA3
:10094C00704700BF80B483B000AF78607B684FF60F
:10095C00FF721A607B684FF000021A717B684FF0CF
:10096C0000025A717B684FF000029A717B684FF05D
:10097C000002DA7107F10C07BD4680BC704700BF5E
:10098C0080B485B000AF78600B467B804FF4803329
:10099C00FB607B88FA6842EA0303FB607B68FA68B9
:1009AC00DA617A887B68DA617B68FA68DA617B687D
:1009BC00DB69FB607B68DB69FB6007F11407BD46F4
:1009CC0080BC704780B485B000AF78600B467B80EC
:1009DC004FF00003FB737B681B8A9AB27B8802EA98
:1009EC0003039BB2002B03D04FF00103FB7302E017
:1009FC004FF00003FB73FB7B184607F11407BD4651
:100A0C0080BC704780B483B000AF78607B681B8A71
:100A1C009BB2184607F10C07BD4680BC704700BF5F
:100A2C0080B485B000AF78600B467B804FF000033C
:100A3C00FB737B689B8A9AB27B8802EA03039BB2A6
:100A4C00002B03D04FF00103FB7302E04FF00003C7
:100A5C00FB73FB7B184607F11407BD4680BC70473F
:100A6C0080B483B000AF78607B689B8A9BB21846D9
:100A7C0007F10C07BD4680BC704700BF80B483B043
:100A8C0000AF78600B467B807B687A881A8307F10D
:100A9C000C07BD4680BC704780B483B000AF786053
:100AAC000B467B807B687A885A8307F10C07BD461E
:100ABC0080BC704780B483B000AF786013460A46A0
:100ACC007A807B707B78002B03D07B687A881A83C2
:100ADC0002E07B687A885A8307F10C07BD4680BC1C
:100AEC00704700BF80B483B000AF78600B467B804A
:100AFC007B687A889A8207F10C07BD4680BC7047E8
:100B0C0080B485B000AF786013460A467A807B705B
:100B1C004FF00003FB604FF00003BB607A787B88DA
:100B2C0003F007034FEA830302FA03F3FB607B88AD
:100B3C004FEAD3039BB21A467B884FEAD3039BB28E
:100B4C0019467B6801F1080153F821107B8803F0EA
:100B5C0007034FEA83034FF00F0000FA03F36FEA29
:100B6C00030319407B6802F1080243F822107B88CA
:100B7C004FEAD3039BB21A467B6802F1080253F882
:100B8C002220FB6842EA0303BB607B884FEAD30355
:100B9C009BB21A467B6802F10802B96843F822102E
:100BAC0007F11407BD4680BC704700BF80B400AF8E
:100BBC0030BFBD4680BC704780B400AF20BFBD467F
:100BCC0080BC704780B500AF4FF080504FF00101F2
:100BDC0000F042FD4FF080504FF0000100F03CFD62
:100BEC0080BD00BF80B483B000AF0346FB71044BE3
:100BFC00FA791A6007F10C07BD4680BC704700BF3C
:100C0C0020000E4280B485B000AF78604FF0000336
:100C1C00FB600A4B1B68FB60FB6823F0E003FB6086
:100C2C00FA687B6842EA0303FB60044BFA681A60BB
:100C3C0007F11407BD4680BC704700BF0070004030
:100C4C0080B483B000AF0346FB71044BFA791A6091
:100C5C0007F10C07BD4680BC704700BF10000E4268
:100C6C0080B485B000AF78600B46FB704FF000038A
:100C7C00FB607A68054BD318FB60FB68FA781A6046
:100C8C0007F11407BD4680BC704700BFA0000E42A0
:100C9C0080B483B000AF0346FB71044BFA791A6041
:100CAC0007F10C07BD4680BC704700BF28000E4200
:100CBC0080B483B000AF0346FB71044BFA791A6021
:100CCC0007F10C07BD4680BC704700BF24000E42E4
:100CDC0080B485B000AF78604FF00003FB600B4B25
:100CEC001B68FB60FB6823F4C053FB60FA687B68ED
:100CFC0042EA0303FB60054BFA6822F00C021A600F
:100D0C0007F11407BD4680BC704700BF007000405F
:100D1C0080B483B000AF0346FB71FB79002B0CD081
:100D2C000E4B0E4A126842F001021A600B4B0B4A32
:100D3C00126842F480421A600BE0084B074A1268B2
:100D4C0022F480421A60054B044A126822F0010218
:100D5C001A6007F10C07BD4680BC7047007000405C
:100D6C0080B584B000AF78600B46FB704FF0000389
:100D7C00FB60104B1B68FB60FB6823F00303FB60FC
:100D8C00FA687B6842EA0303FB600A4BFA681A6054
:100D9C00094B094A126922F004021A61FB78012BF3
:100DAC0002D1FFF703FF01E0FFF706FF07F1100781
:100DBC00BD4680BD0070004000ED00E080B584B001
:100DCC0000AF78600B46FB704FF00003FB60134BD9
:100DDC001B68FB60FB6823F00303FB60FA687B680D
:100DEC0042EA0303FB600D4BFA681A600C4B0C4A89
:100DFC00126942F004021A61FB78012B02D1FFF751
:100E0C00D5FE01E0FFF7D8FE054B054A126922F02A
:100E1C0004021A6107F11007BD4680BD0070004046
:100E2C0000ED00E080B500AF0A4B0A4A126842F0B0
:100E3C0004021A60074B074A126842F002021A6059
:100E4C00054B054A126942F004021A61FFF7AEFE27
:100E5C0080BD00BF0070004000ED00E080B485B0A4
:100E6C0000AF78604FF00003FB730A4B5A687B6845
:100E7C0002EA0303002B03D04FF00103FB7302E0E3
:100E8C004FF00003FB73FB7B184607F11407BD46BC
:100E9C0080BC70470070004080B483B000AF7860B5
:100EAC00064B064A11687A684FEA820241EA02024E
:100EBC001A6007F10C07BD4680BC704700700040FB
:100ECC0080B400AF134B134A126842F480721A605C
:100EDC00104A104B9968104B01EA030393600D4ABA
:100EEC000C4B19680D4B01EA03031360094B094ABB
:100EFC00126822F480221A60064B064A926822F489
:100F0C007D029A60034B4FF00002DA60BD4680BC54
:100F1C00704700BF003802400CC0FF88FEFFFEEE99
:100F2C0080B483B000AF0346FB71064B4FF0000258
:100F3C001A70044BFA791A7007F10C07BD4680BC85
:100F4C00704700BF0238024080B582B000AF4FF04E
:100F5C0000033B604FF00003FB714FF00003BB71CB
:100F6C004FF0310000F028FC0346BB713B6803F1E5
:100F7C0001033B603B68B3F5A06F02D0BB79002B3B
:100F8C00EED04FF0310000F017FC0346002B03D0DD
:100F9C004FF00103FB7102E04FF00003FB71FB7992
:100FAC00184607F10807BD4680BD00BF80B483B06A
:100FBC0000AF0346FB71044BFA791A7007F10C076A
:100FCC00BD4680BC704700BF0738024080B485B076
:100FDC0000AF78604FF00003FB600A4B5B68FB606E
:100FEC00FB6823F46043FB60FA687B6842EA030306
:100FFC00FB60044BFA685A6007F11407BD4680BCCD
:10100C00704700BF0038024080B483B000AF034685
:10101C00FB71044BFA791A6007F10C07BD4680BCD2
:10102C00704700BF2000474280B485B000AF034634
:10103C00FB714FF00003FB600A4B5B68FB60FB68C5
:10104C0023F4F853FB60FB794FEA0323FA6842EA76
:10105C000303FB60034BFA685A6007F11407BD46A3
:10106C0080BC70470038024080B483B000AF0346A8
:10107C00FB71044BFA791A6007F10C07BD4680BC72
:10108C00704700BF0000474280B483B000AF0346F6
:10109C00FB71064B4FF000021A70044BFA791A7070
:1010AC0007F10C07BD4680BC704700BF35380240C5
:1010BC0080B483B000AF0346FB71044BFA791A601D
:1010CC0007F10C07BD4680BC704700BF8006474245
:1010DC0080B483B000AF13460246FA710A46BA7167
:1010EC007B71084BB9797A7941EA0202D1B2FA796B
:1010FC0041EA0202D2B21A7007F10C07BD4680BC5D
:10110C00704700BF0A38024080B483B000AF03467A
:10111C00FB71044BFA791A6007F10C07BD4680BCD1
:10112C00704700BF6000474280B483B000AF0346F5
:10113C00FB71044BFA791A6007F10C07BD4680BCB1
:10114C00704700BF7000474280B483B000AF0246C6
:10115C000B46FA71BB71064BF979BA7941EA020276
:10116C00D2B21A7007F10C07BD4680BC704700BFA5
:10117C000B38024080B485B000AF78604FF00003AC
:10118C00FB600A4B9B68FB60FB6823F00303FB606E
:10119C00FA687B6842EA0303FB60044BFA689A60C6
:1011AC0007F11407BD4680BC704700BF00380240F1
:1011BC0080B400AF044B9B68DBB203F00C03DBB2D2
:1011CC001846BD4680BC70470038024080B485B0DC
:1011DC0000AF78604FF00003FB600A4B9B68FB602C
:1011EC00FB6823F0F003FB60FA687B6842EA0303B8
:1011FC00FB60044BFA689A6007F11407BD4680BC8B
:10120C00704700BF0038024080B485B000AF7860F2
:10121C004FF00003FB600A4B9B68FB60FB6823F4F8
:10122C00E063FB60FA687B6842EA0303FB60044BF3
:10123C00FA689A6007F11407BD4680BC704700BF7E
:10124C000038024080B485B000AF78604FF00003E6
:10125C00FB600B4B9B68FB60FB6823F46053FB60EB
:10126C007B684FEAC303FA6842EA0303FB60044B52
:10127C00FA689A6007F11407BD4680BC704700BF3E
:10128C000038024080B489B000AF78604FF00003A2
:10129C00FB614FF00003BB614FF000037B614FF02B
:1012AC0000033B614FF00003FB604FF00003BB6099
:1012BC00654B9B6803F00C03FB61FB690C2B6AD834
:1012CC0001A252F823F000BF09130008A313000871
:1012DC00A3130008A31300082D130008A313000880
:1012EC00A3130008A313000835130008A313000868
:1012FC00A3130008A31300083D130008524B5B68AE
:10130C0003F460434FEA5333BB60BB6803F1010342
:10131C004FF4004202FA03F31A467B681A604CE061
:10132C007B684A4A1A6048E07B68494A1A6044E084
:10133C00454B9B6803F47013BB61434B9B6803F4F0
:10134C0040037B61BB694FEA9343424AD35CDBB2F7
:10135C00BB617B694FEA935303F101037B613A4B09
:10136C009B6803F480333B613B69002B09D1BB695B
:10137C00364A02FB03F27B69B2FBF3F27B681A601C
:10138C001BE0BB69324A02FB03F27B69B2FBF3F24E
:10139C007B681A6011E02C4B5B6803F460434FEAE6
:1013AC005333BB60BB6803F101034FF4004202FAF4
:1013BC0003F31A467B681A6000BF234B9B6803F04B
:1013CC00F003FB61FB694FEA1313FB61224AFB69D3
:1013DC00D3181B78DBB2FB607B681A68FB6822FAB7
:1013EC0003F27B685A60184B9B6803F4E063FB6163
:1013FC00FB694FEA1323FB61174AFB69D3181B786F
:10140C00DBB2FB607B685A68FB6822FA03F27B68EC
:10141C009A600D4B9B6803F46053FB61FB694FEAC8
:10142C00D323FB610C4AFB69D3181B78DBB2FB603E
:10143C007B685A68FB6822FA03F27B68DA6007F172
:10144C002407BD4680BC7047003802400024F400DD
:10145C0000127A00200000202C00002080B485B0FF
:10146C0000AF78604FF00003FB607B6803F44033FF
:10147C00B3F5403F10D1124B1B68FB60FB6823F0A7
:10148C00C043FB607B6803F0C043FA6842EA030385
:10149C00FB600B4BFA681A60094B094A526B22F439
:1014AC0040325A63064B064A516B7A6802F440325A
:1014BC0041EA02025A6307F11407BD4680BC70472B
:1014CC000038024080B483B000AF0346FB71044B7C
:1014DC00FA791A6007F10C07BD4680BC704700BF53
:1014EC00D806474280B483B000AF0346FB71044B6F
:1014FC00FA791A6007F10C07BD4680BC704700BF33
:10150C00DC06474280B483B000AF78600B46FB70BA
:10151C00FB78002B07D00B4B0A4AD1697A6841EA59
:10152C000202DA6108E0074B064AD1697A686FEA71
:10153C00020201EA0202DA6107F10C07BD4680BC27
:10154C00704700BF0038024080B483B000AF7860B1
:10155C000B46FB70FB78002B07D00B4B0A4A116A29
:10156C007A6841EA02021A6208E0074B064A116ADD
:10157C007A686FEA020201EA02021A6207F10C07AA
:10158C00BD4680BC704700BF0038024080B483B0B9
:10159C0000AF78600B46FB70FB78002B07D00B4B31
:1015AC000A4A516A7A6841EA02025A6208E0074B19
:1015BC00064A516A7A686FEA020201EA02025A622A
:1015CC0007F10C07BD4680BC704700BF00380240D5
:1015DC0080B483B000AF78600B46FB70FB78002BB7
:1015EC0007D00B4B0A4A11697A6841EA02021A6168
:1015FC0008E0074B064A11697A686FEA020201EAB1
:10160C0002021A6107F10C07BD4680BC704700BF8F
:10161C000038024080B483B000AF78600B46FB709A
:10162C00FB78002B07D00B4B0A4A51697A6841EAC8
:10163C0002025A6108E0074B064A51697A686FEA60
:10164C00020201EA02025A6107F10C07BD4680BC96
:10165C00704700BF0038024080B483B000AF7860A0
:10166C000B46FB70FB78002B07D00B4B0A4A916999
:10167C007A6841EA02029A6108E0074B064A9169CE
:10168C007A686FEA020201EA02029A6107F10C071A
:10169C00BD4680BC704700BF0038024080B483B0A8
:1016AC0000AF78600B46FB70FB78002B07D00B4B20
:1016BC000A4A916A7A6841EA02029A6208E0074B88
:1016CC00064A916A7A686FEA020201EA02029A6299
:1016DC0007F10C07BD4680BC704700BF00380240C4
:1016EC0080B483B000AF78600B46FB70FB78002BA6
:1016FC0007D00B4B0A4AD16A7A6841EA0202DA62D5
:10170C0008E0074B064AD16A7A686FEA020201EADE
:10171C000202DA6207F10C07BD4680BC704700BFBD
:10172C000038024080B483B000AF78600B46FB7089
:10173C00FB78002B07D00B4B0A4A116B7A6841EAF5
:10174C0002021A6308E0074B064A116B7A686FEACB
:10175C00020201EA02021A6307F10C07BD4680BCC3
:10176C00704700BF0038024080B483B000AF02461F
:10177C000B46FA71BB71BB79002B09D00D4B0D4A8E
:10178C001278D1B2FA7941EA0202D2B21A700BE0A5
:10179C00084B084A1278D1B2FA796FEA0202D2B237
:1017AC0001EA0202D2B21A7007F10C07BD4680BCE6
:1017BC00704700BF0D38024080B487B000AF0346BD
:1017CC00FB714FF00003FB604FF000037B614FF0A7
:1017DC000003FB74FB794FEA5313DBB2FB60FB682D
:1017EC00012B03D1104B1B687B6102E00E4B5B6B32
:1017FC007B61FB7903F01F03FB60FB687A6922FABB
:10180C0003F303F00103DBB2002B03D04FF0010311
:10181C00FB7402E04FF00003FB74FB7C184607F1ED
:10182C001C07BD4680BC70470038024080B400AF36
:10183C00044B044A526B42F080725A63BD4680BC22
:10184C00704700BF0038024080B485B000AF03463B
:10185C00FB714FF00003FB730A4BDA68FB7902EA69
:10186C000303002B03D04FF00103FB7302E04FF096
:10187C000003FB73FB7B184607F11407BD4680BCC5
:10188C00704700BF0038024080B483B000AF0346FD
:10189C00FB71044BFA791A7007F10C07BD4680BC3A
:1018AC00704700BF0E38024070B541F6681641F61D
:1018BC006815C0F60006C0F60005761BB61006D0FB
:1018CC00002455F8043B01349847A642F9D141F65F
:1018DC006C1641F66815C0F60006C0F60005761BBE
:1018EC0000F030F8B61006D0002455F8043B013453
:1018FC009847A642F9D170BD002103E00B4B5B5811
:10190C00435004310A480B4B42189A42F6D30A4A08
:10191C0002E0002342F8043B084B9A42F9D3FEF74D
:10192C0065FDFFF7C1FFFEF76DFC704770190008ED
:10193C00000000203C0000203C000020680000203B
:10194C00FEE70000F8B500BFF8BC08BC9E46704727
:0C195C00F8B500BFF8BC08BC9E46704700
:041968002101000851
:04196C000D01000861
:101970000048E801030406080C101820300000009D
:10198000000000000000000001020304060708092F
:10199000030406080C1018203000000000000000AE
:0C19A00001020304010203040607080909
:0400000508001905D1
:00000001FF
